nanak@nanak-Legion:~/sqlite-lab$ xxd -g 1 -l 200 test.db
00000000: 53 51 4c 69 74 65 20 66 6f 72 6d 61 74 20 33 00  SQLite format 3.
00000010: 10 00 01 01 00 40 20 20 00 00 00 02 00 00 00 02  .....@  ........
00000020: 00 00 00 00 00 00 00 00 00 00 00 01 00 00 00 04  ................
00000030: 00 00 00 00 00 00 00 00 00 00 00 01 00 00 00 00  ................
00000040: 00 00 00 00 00 00 00 00 00 00 00 00 00 00 00 00  ................
00000050: 00 00 00 00 00 00 00 00 00 00 00 00 00 00 00 02  ................
00000060: 00 2e 76 89 0d 00 00 00 01 0f 8d 00 0f 8d 00 00  ..v.............
00000070: 00 00 00 00 00 00 00 00 00 00 00 00 00 00 00 00  ................
00000080: 00 00 00 00 00 00 00 00 00 00 00 00 00 00 00 00  ................
00000090: 00 00 00 00 00 00 00 00 00 00 00 00 00 00 00 00  ................
000000a0: 00 00 00 00 00 00 00 00 00 00 00 00 00 00 00 00  ................
000000b0: 00 00 00 00 00 00 00 00 00 00 00 00 00 00 00 00  ................
000000c0: 00 00 00 00 00 00 00 00                          ........
nanak@nanak-Legion:~/sqlite-lab$ xxd -g 1 -s 3980 -l 150 test.db
00000f8c: 00 71 01 07 17 1d 1d 01 81 35 74 61 62 6c 65 73  .q.......5tables
00000f9c: 74 75 64 65 6e 74 73 73 74 75 64 65 6e 74 73 02  tudentsstudents.
00000fac: 43 52 45 41 54 45 20 54 41 42 4c 45 20 73 74 75  CREATE TABLE stu
00000fbc: 64 65 6e 74 73 20 28 0a 20 20 20 20 69 64 20 49  dents (.    id I
00000fcc: 4e 54 45 47 45 52 20 50 52 49 4d 41 52 59 20 4b  NTEGER PRIMARY K
00000fdc: 45 59 2c 0a 20 20 20 20 6e 61 6d 65 20 54 45 58  EY,.    name TEX
00000fec: 54 2c 0a 20 20 20 20 61 67 65 20 49 4e 54 45 47  T,.    age INTEG
00000ffc: 45 52 0a 29 0d 00 00 00 03 0f de 00 0f f5 0f ec  ER.)............
0000100c: 0f de 00 00 00 00 00 00 00 00 00 00 00 00 00 00  ................
0000101c: 00 00 00 00 00 00                                ......
nanak@nanak-Legion:~/sqlite-lab$ xxd -g 1 -s 4096 -l 250 test.db
00001000: 0d 00 00 00 03 0f de 00 0f f5 0f ec 0f de 00 00  ................
00001010: 00 00 00 00 00 00 00 00 00 00 00 00 00 00 00 00  ................
00001020: 00 00 00 00 00 00 00 00 00 00 00 00 00 00 00 00  ................
00001030: 00 00 00 00 00 00 00 00 00 00 00 00 00 00 00 00  ................
00001040: 00 00 00 00 00 00 00 00 00 00 00 00 00 00 00 00  ................
00001050: 00 00 00 00 00 00 00 00 00 00 00 00 00 00 00 00  ................
00001060: 00 00 00 00 00 00 00 00 00 00 00 00 00 00 00 00  ................
00001070: 00 00 00 00 00 00 00 00 00 00 00 00 00 00 00 00  ................
00001080: 00 00 00 00 00 00 00 00 00 00 00 00 00 00 00 00  ................
00001090: 00 00 00 00 00 00 00 00 00 00 00 00 00 00 00 00  ................
000010a0: 00 00 00 00 00 00 00 00 00 00 00 00 00 00 00 00  ................
000010b0: 00 00 00 00 00 00 00 00 00 00 00 00 00 00 00 00  ................
000010c0: 00 00 00 00 00 00 00 00 00 00 00 00 00 00 00 00  ................
000010d0: 00 00 00 00 00 00 00 00 00 00 00 00 00 00 00 00  ................
000010e0: 00 00 00 00 00 00 00 00 00 00 00 00 00 00 00 00  ................
000010f0: 00 00 00 00 00 00 00 00 00 00                    ..........
nanak@nanak-Legion:~/sqlite-lab$ xxd -g 1 -s 8150 -l 120 test.db
00001fde: 0a 03 04 00 19 01 53 69 6d 72 61 6e 16 00 00 00  ......Simran....
00001fee: 07 02 04 00 11 01 52 61 6a 15 00 09 01 04 00 17  ......Raj.......
00001ffe: 01 4e 61 6e 61 6b 14                             .Nanak.
nanak@nanak-Legion:~/sqlite-lab$ sqlite3 test.db "SELECT rootpage, sql FROM sqlite_master;"
2|CREATE TABLE students (
    id INTEGER PRIMARY KEY,
    name TEXT,
    age INTEGER
)
nanak@nanak-Legion:~/sqlite-lab$ sqlite3 test.db "PRAGMA page_size;"
sqlite3 test.db "PRAGMA page_count;"
sqlite3 test.db "PRAGMA encoding;"
4096
2
UTF-8
nanak@nanak-Legion:~/sqlite-lab$ xxd -g 1 test.db > full_hex_dump.txt
nanak@nanak-Legion:~/sqlite-lab$ head -40 full_hex_dump.txt
00000000: 53 51 4c 69 74 65 20 66 6f 72 6d 61 74 20 33 00  SQLite format 3.
00000010: 10 00 01 01 00 40 20 20 00 00 00 02 00 00 00 02  .....@  ........
00000020: 00 00 00 00 00 00 00 00 00 00 00 01 00 00 00 04  ................
00000030: 00 00 00 00 00 00 00 00 00 00 00 01 00 00 00 00  ................
00000040: 00 00 00 00 00 00 00 00 00 00 00 00 00 00 00 00  ................
00000050: 00 00 00 00 00 00 00 00 00 00 00 00 00 00 00 02  ................
00000060: 00 2e 76 89 0d 00 00 00 01 0f 8d 00 0f 8d 00 00  ..v.............
00000070: 00 00 00 00 00 00 00 00 00 00 00 00 00 00 00 00  ................
00000080: 00 00 00 00 00 00 00 00 00 00 00 00 00 00 00 00  ................
00000090: 00 00 00 00 00 00 00 00 00 00 00 00 00 00 00 00  ................
000000a0: 00 00 00 00 00 00 00 00 00 00 00 00 00 00 00 00  ................
000000b0: 00 00 00 00 00 00 00 00 00 00 00 00 00 00 00 00  ................
000000c0: 00 00 00 00 00 00 00 00 00 00 00 00 00 00 00 00  ................
000000d0: 00 00 00 00 00 00 00 00 00 00 00 00 00 00 00 00  ................
000000e0: 00 00 00 00 00 00 00 00 00 00 00 00 00 00 00 00  ................
000000f0: 00 00 00 00 00 00 00 00 00 00 00 00 00 00 00 00  ................
00000100: 00 00 00 00 00 00 00 00 00 00 00 00 00 00 00 00  ................
00000110: 00 00 00 00 00 00 00 00 00 00 00 00 00 00 00 00  ................
00000120: 00 00 00 00 00 00 00 00 00 00 00 00 00 00 00 00  ................
00000130: 00 00 00 00 00 00 00 00 00 00 00 00 00 00 00 00  ................
00000140: 00 00 00 00 00 00 00 00 00 00 00 00 00 00 00 00  ................
00000150: 00 00 00 00 00 00 00 00 00 00 00 00 00 00 00 00  ................
00000160: 00 00 00 00 00 00 00 00 00 00 00 00 00 00 00 00  ................
00000170: 00 00 00 00 00 00 00 00 00 00 00 00 00 00 00 00  ................
00000180: 00 00 00 00 00 00 00 00 00 00 00 00 00 00 00 00  ................
00000190: 00 00 00 00 00 00 00 00 00 00 00 00 00 00 00 00  ................
000001a0: 00 00 00 00 00 00 00 00 00 00 00 00 00 00 00 00  ................
000001b0: 00 00 00 00 00 00 00 00 00 00 00 00 00 00 00 00  ................
000001c0: 00 00 00 00 00 00 00 00 00 00 00 00 00 00 00 00  ................
000001d0: 00 00 00 00 00 00 00 00 00 00 00 00 00 00 00 00  ................
000001e0: 00 00 00 00 00 00 00 00 00 00 00 00 00 00 00 00  ................
000001f0: 00 00 00 00 00 00 00 00 00 00 00 00 00 00 00 00  ................
00000200: 00 00 00 00 00 00 00 00 00 00 00 00 00 00 00 00  ................
00000210: 00 00 00 00 00 00 00 00 00 00 00 00 00 00 00 00  ................
00000220: 00 00 00 00 00 00 00 00 00 00 00 00 00 00 00 00  ................
00000230: 00 00 00 00 00 00 00 00 00 00 00 00 00 00 00 00  ................
00000240: 00 00 00 00 00 00 00 00 00 00 00 00 00 00 00 00  ................
00000250: 00 00 00 00 00 00 00 00 00 00 00 00 00 00 00 00  ................
00000260: 00 00 00 00 00 00 00 00 00 00 00 00 00 00 00 00  ................
00000270: 00 00 00 00 00 00 00 00 00 00 00 00 00 00 00 00  ................
nanak@nanak-Legion:~/sqlite-lab$
